{
  "_format": "hh-sol-artifact-1",
  "contractName": "Baskets",
  "sourceName": "contracts/Baskets.sol",
  "abi": [
    {
      "inputs": [],
      "stateMutability": "nonpayable",
      "type": "constructor"
    },
    {
      "anonymous": false,
      "inputs": [
        {
          "indexed": true,
          "internalType": "address",
          "name": "owner",
          "type": "address"
        },
        {
          "indexed": true,
          "internalType": "address",
          "name": "approved",
          "type": "address"
        },
        {
          "indexed": true,
          "internalType": "uint256",
          "name": "tokenId",
          "type": "uint256"
        }
      ],
      "name": "Approval",
      "type": "event"
    },
    {
      "anonymous": false,
      "inputs": [
        {
          "indexed": true,
          "internalType": "address",
          "name": "owner",
          "type": "address"
        },
        {
          "indexed": true,
          "internalType": "address",
          "name": "operator",
          "type": "address"
        },
        {
          "indexed": false,
          "internalType": "bool",
          "name": "approved",
          "type": "bool"
        }
      ],
      "name": "ApprovalForAll",
      "type": "event"
    },
    {
      "anonymous": false,
      "inputs": [
        {
          "indexed": true,
          "internalType": "address",
          "name": "previousOwner",
          "type": "address"
        },
        {
          "indexed": true,
          "internalType": "address",
          "name": "newOwner",
          "type": "address"
        }
      ],
      "name": "OwnershipTransferred",
      "type": "event"
    },
    {
      "anonymous": false,
      "inputs": [
        {
          "indexed": true,
          "internalType": "address",
          "name": "from",
          "type": "address"
        },
        {
          "indexed": true,
          "internalType": "address",
          "name": "to",
          "type": "address"
        },
        {
          "indexed": true,
          "internalType": "uint256",
          "name": "tokenId",
          "type": "uint256"
        }
      ],
      "name": "Transfer",
      "type": "event"
    },
    {
      "inputs": [
        {
          "internalType": "address",
          "name": "to",
          "type": "address"
        },
        {
          "internalType": "uint256",
          "name": "tokenId",
          "type": "uint256"
        }
      ],
      "name": "approve",
      "outputs": [],
      "stateMutability": "nonpayable",
      "type": "function"
    },
    {
      "inputs": [
        {
          "internalType": "address",
          "name": "owner",
          "type": "address"
        }
      ],
      "name": "balanceOf",
      "outputs": [
        {
          "internalType": "uint256",
          "name": "",
          "type": "uint256"
        }
      ],
      "stateMutability": "view",
      "type": "function"
    },
    {
      "inputs": [
        {
          "internalType": "string",
          "name": "uri",
          "type": "string"
        }
      ],
      "name": "createBasket",
      "outputs": [
        {
          "internalType": "uint256",
          "name": "",
          "type": "uint256"
        }
      ],
      "stateMutability": "nonpayable",
      "type": "function"
    },
    {
      "inputs": [
        {
          "internalType": "uint256",
          "name": "tokenId",
          "type": "uint256"
        }
      ],
      "name": "getApproved",
      "outputs": [
        {
          "internalType": "address",
          "name": "",
          "type": "address"
        }
      ],
      "stateMutability": "view",
      "type": "function"
    },
    {
      "inputs": [
        {
          "internalType": "address",
          "name": "owner",
          "type": "address"
        },
        {
          "internalType": "address",
          "name": "operator",
          "type": "address"
        }
      ],
      "name": "isApprovedForAll",
      "outputs": [
        {
          "internalType": "bool",
          "name": "",
          "type": "bool"
        }
      ],
      "stateMutability": "view",
      "type": "function"
    },
    {
      "inputs": [],
      "name": "name",
      "outputs": [
        {
          "internalType": "string",
          "name": "",
          "type": "string"
        }
      ],
      "stateMutability": "view",
      "type": "function"
    },
    {
      "inputs": [],
      "name": "owner",
      "outputs": [
        {
          "internalType": "address",
          "name": "",
          "type": "address"
        }
      ],
      "stateMutability": "view",
      "type": "function"
    },
    {
      "inputs": [
        {
          "internalType": "uint256",
          "name": "tokenId",
          "type": "uint256"
        }
      ],
      "name": "ownerOf",
      "outputs": [
        {
          "internalType": "address",
          "name": "",
          "type": "address"
        }
      ],
      "stateMutability": "view",
      "type": "function"
    },
    {
      "inputs": [],
      "name": "renounceOwnership",
      "outputs": [],
      "stateMutability": "nonpayable",
      "type": "function"
    },
    {
      "inputs": [
        {
          "internalType": "address",
          "name": "from",
          "type": "address"
        },
        {
          "internalType": "address",
          "name": "to",
          "type": "address"
        },
        {
          "internalType": "uint256",
          "name": "tokenId",
          "type": "uint256"
        }
      ],
      "name": "safeTransferFrom",
      "outputs": [],
      "stateMutability": "nonpayable",
      "type": "function"
    },
    {
      "inputs": [
        {
          "internalType": "address",
          "name": "from",
          "type": "address"
        },
        {
          "internalType": "address",
          "name": "to",
          "type": "address"
        },
        {
          "internalType": "uint256",
          "name": "tokenId",
          "type": "uint256"
        },
        {
          "internalType": "bytes",
          "name": "data",
          "type": "bytes"
        }
      ],
      "name": "safeTransferFrom",
      "outputs": [],
      "stateMutability": "nonpayable",
      "type": "function"
    },
    {
      "inputs": [
        {
          "internalType": "address",
          "name": "operator",
          "type": "address"
        },
        {
          "internalType": "bool",
          "name": "approved",
          "type": "bool"
        }
      ],
      "name": "setApprovalForAll",
      "outputs": [],
      "stateMutability": "nonpayable",
      "type": "function"
    },
    {
      "inputs": [
        {
          "internalType": "bytes4",
          "name": "interfaceId",
          "type": "bytes4"
        }
      ],
      "name": "supportsInterface",
      "outputs": [
        {
          "internalType": "bool",
          "name": "",
          "type": "bool"
        }
      ],
      "stateMutability": "view",
      "type": "function"
    },
    {
      "inputs": [],
      "name": "symbol",
      "outputs": [
        {
          "internalType": "string",
          "name": "",
          "type": "string"
        }
      ],
      "stateMutability": "view",
      "type": "function"
    },
    {
      "inputs": [
        {
          "internalType": "uint256",
          "name": "tokenId",
          "type": "uint256"
        }
      ],
      "name": "tokenURI",
      "outputs": [
        {
          "internalType": "string",
          "name": "",
          "type": "string"
        }
      ],
      "stateMutability": "view",
      "type": "function"
    },
    {
      "inputs": [
        {
          "internalType": "address",
          "name": "from",
          "type": "address"
        },
        {
          "internalType": "address",
          "name": "to",
          "type": "address"
        },
        {
          "internalType": "uint256",
          "name": "tokenId",
          "type": "uint256"
        }
      ],
      "name": "transferFrom",
      "outputs": [],
      "stateMutability": "nonpayable",
      "type": "function"
    },
    {
      "inputs": [
        {
          "internalType": "address",
          "name": "newOwner",
          "type": "address"
        }
      ],
      "name": "transferOwnership",
      "outputs": [],
      "stateMutability": "nonpayable",
      "type": "function"
    }
  ],
  "bytecode": "0x60806040523480156200001157600080fd5b506040518060400160405280600781526020017f4261736b657473000000000000000000000000000000000000000000000000008152506040518060400160405280600481526020017f42534b5400000000000000000000000000000000000000000000000000000000815250816000908051906020019062000096929190620001a6565b508060019080519060200190620000af929190620001a6565b505050620000d2620000c6620000d860201b60201c565b620000e060201b60201c565b620002bb565b600033905090565b6000600760009054906101000a900473ffffffffffffffffffffffffffffffffffffffff16905081600760006101000a81548173ffffffffffffffffffffffffffffffffffffffff021916908373ffffffffffffffffffffffffffffffffffffffff1602179055508173ffffffffffffffffffffffffffffffffffffffff168173ffffffffffffffffffffffffffffffffffffffff167f8be0079c531659141344cd1fd0a4f28419497f9722a3daafe3b4186f6b6457e060405160405180910390a35050565b828054620001b49062000285565b90600052602060002090601f016020900481019282620001d8576000855562000224565b82601f10620001f357805160ff191683800117855562000224565b8280016001018555821562000224579182015b828111156200022357825182559160200191906001019062000206565b5b50905062000233919062000237565b5090565b5b808211156200025257600081600090555060010162000238565b5090565b7f4e487b7100000000000000000000000000000000000000000000000000000000600052602260045260246000fd5b600060028204905060018216806200029e57607f821691505b60208210811415620002b557620002b462000256565b5b50919050565b612c0e80620002cb6000396000f3fe608060405234801561001057600080fd5b506004361061010b5760003560e01c8063715018a6116100a2578063a9b27bd511610071578063a9b27bd5146102a4578063b88d4fde146102d4578063c87b56dd146102f0578063e985e9c514610320578063f2fde38b146103505761010b565b8063715018a6146102425780638da5cb5b1461024c57806395d89b411461026a578063a22cb465146102885761010b565b806323b872dd116100de57806323b872dd146101aa57806342842e0e146101c65780636352211e146101e257806370a08231146102125761010b565b806301ffc9a71461011057806306fdde0314610140578063081812fc1461015e578063095ea7b31461018e575b600080fd5b61012a60048036038101906101259190611af3565b61036c565b6040516101379190611b3b565b60405180910390f35b61014861044e565b6040516101559190611bef565b60405180910390f35b61017860048036038101906101739190611c47565b6104e0565b6040516101859190611cb5565b60405180910390f35b6101a860048036038101906101a39190611cfc565b610526565b005b6101c460048036038101906101bf9190611d3c565b61063e565b005b6101e060048036038101906101db9190611d3c565b61069e565b005b6101fc60048036038101906101f79190611c47565b6106be565b6040516102099190611cb5565b60405180910390f35b61022c60048036038101906102279190611d8f565b610770565b6040516102399190611dcb565b60405180910390f35b61024a610828565b005b61025461083c565b6040516102619190611cb5565b60405180910390f35b610272610866565b60405161027f9190611bef565b60405180910390f35b6102a2600480360381019061029d9190611e12565b6108f8565b005b6102be60048036038101906102b99190611f87565b61090e565b6040516102cb9190611dcb565b60405180910390f35b6102ee60048036038101906102e99190612071565b610944565b005b61030a60048036038101906103059190611c47565b6109a6565b6040516103179190611bef565b60405180910390f35b61033a600480360381019061033591906120f4565b6109b8565b6040516103479190611b3b565b60405180910390f35b61036a60048036038101906103659190611d8f565b610a4c565b005b60007f80ac58cd000000000000000000000000000000000000000000000000000000007bffffffffffffffffffffffffffffffffffffffffffffffffffffffff1916827bffffffffffffffffffffffffffffffffffffffffffffffffffffffff1916148061043757507f5b5e139f000000000000000000000000000000000000000000000000000000007bffffffffffffffffffffffffffffffffffffffffffffffffffffffff1916827bffffffffffffffffffffffffffffffffffffffffffffffffffffffff1916145b80610447575061044682610ad0565b5b9050919050565b60606000805461045d90612163565b80601f016020809104026020016040519081016040528092919081815260200182805461048990612163565b80156104d65780601f106104ab576101008083540402835291602001916104d6565b820191906000526020600020905b8154815290600101906020018083116104b957829003601f168201915b5050505050905090565b60006104eb82610b3a565b6004600083815260200190815260200160002060009054906101000a900473ffffffffffffffffffffffffffffffffffffffff169050919050565b6000610531826106be565b90508073ffffffffffffffffffffffffffffffffffffffff168373ffffffffffffffffffffffffffffffffffffffff1614156105a2576040517f08c379a000000000000000000000000000000000000000000000000000000000815260040161059990612207565b60405180910390fd5b8073ffffffffffffffffffffffffffffffffffffffff166105c1610b85565b73ffffffffffffffffffffffffffffffffffffffff1614806105f057506105ef816105ea610b85565b6109b8565b5b61062f576040517f08c379a000000000000000000000000000000000000000000000000000000000815260040161062690612299565b60405180910390fd5b6106398383610b8d565b505050565b61064f610649610b85565b82610c46565b61068e576040517f08c379a00000000000000000000000000000000000000000000000000000000081526004016106859061232b565b60405180910390fd5b610699838383610cdb565b505050565b6106b983838360405180602001604052806000815250610944565b505050565b6000806002600084815260200190815260200160002060009054906101000a900473ffffffffffffffffffffffffffffffffffffffff169050600073ffffffffffffffffffffffffffffffffffffffff168173ffffffffffffffffffffffffffffffffffffffff161415610767576040517f08c379a000000000000000000000000000000000000000000000000000000000815260040161075e90612397565b60405180910390fd5b80915050919050565b60008073ffffffffffffffffffffffffffffffffffffffff168273ffffffffffffffffffffffffffffffffffffffff1614156107e1576040517f08c379a00000000000000000000000000000000000000000000000000000000081526004016107d890612429565b60405180910390fd5b600360008373ffffffffffffffffffffffffffffffffffffffff1673ffffffffffffffffffffffffffffffffffffffff168152602001908152602001600020549050919050565b610830610f42565b61083a6000610fc0565b565b6000600760009054906101000a900473ffffffffffffffffffffffffffffffffffffffff16905090565b60606001805461087590612163565b80601f01602080910402602001604051908101604052809291908181526020018280546108a190612163565b80156108ee5780601f106108c3576101008083540402835291602001916108ee565b820191906000526020600020905b8154815290600101906020018083116108d157829003601f168201915b5050505050905090565b61090a610903610b85565b8383611086565b5050565b60008061091b60086111f3565b90506109276008611201565b6109313382611217565b61093b81846113f1565b80915050919050565b61095561094f610b85565b83610c46565b610994576040517f08c379a000000000000000000000000000000000000000000000000000000000815260040161098b9061232b565b60405180910390fd5b6109a084848484611465565b50505050565b60606109b1826114c1565b9050919050565b6000600560008473ffffffffffffffffffffffffffffffffffffffff1673ffffffffffffffffffffffffffffffffffffffff16815260200190815260200160002060008373ffffffffffffffffffffffffffffffffffffffff1673ffffffffffffffffffffffffffffffffffffffff16815260200190815260200160002060009054906101000a900460ff16905092915050565b610a54610f42565b600073ffffffffffffffffffffffffffffffffffffffff168173ffffffffffffffffffffffffffffffffffffffff161415610ac4576040517f08c379a0000000000000000000000000000000000000000000000000000000008152600401610abb906124bb565b60405180910390fd5b610acd81610fc0565b50565b60007f01ffc9a7000000000000000000000000000000000000000000000000000000007bffffffffffffffffffffffffffffffffffffffffffffffffffffffff1916827bffffffffffffffffffffffffffffffffffffffffffffffffffffffff1916149050919050565b610b43816115d4565b610b82576040517f08c379a0000000000000000000000000000000000000000000000000000000008152600401610b7990612397565b60405180910390fd5b50565b600033905090565b816004600083815260200190815260200160002060006101000a81548173ffffffffffffffffffffffffffffffffffffffff021916908373ffffffffffffffffffffffffffffffffffffffff160217905550808273ffffffffffffffffffffffffffffffffffffffff16610c00836106be565b73ffffffffffffffffffffffffffffffffffffffff167f8c5be1e5ebec7d5bd14f71427d1e84f3dd0314c0f7b2291e5b200ac8c7c3b92560405160405180910390a45050565b600080610c52836106be565b90508073ffffffffffffffffffffffffffffffffffffffff168473ffffffffffffffffffffffffffffffffffffffff161480610c945750610c9381856109b8565b5b80610cd257508373ffffffffffffffffffffffffffffffffffffffff16610cba846104e0565b73ffffffffffffffffffffffffffffffffffffffff16145b91505092915050565b8273ffffffffffffffffffffffffffffffffffffffff16610cfb826106be565b73ffffffffffffffffffffffffffffffffffffffff1614610d51576040517f08c379a0000000000000000000000000000000000000000000000000000000008152600401610d489061254d565b60405180910390fd5b600073ffffffffffffffffffffffffffffffffffffffff168273ffffffffffffffffffffffffffffffffffffffff161415610dc1576040517f08c379a0000000000000000000000000000000000000000000000000000000008152600401610db8906125df565b60405180910390fd5b610dcc838383611640565b610dd7600082610b8d565b6001600360008573ffffffffffffffffffffffffffffffffffffffff1673ffffffffffffffffffffffffffffffffffffffff1681526020019081526020016000206000828254610e27919061262e565b925050819055506001600360008473ffffffffffffffffffffffffffffffffffffffff1673ffffffffffffffffffffffffffffffffffffffff1681526020019081526020016000206000828254610e7e9190612662565b92505081905550816002600083815260200190815260200160002060006101000a81548173ffffffffffffffffffffffffffffffffffffffff021916908373ffffffffffffffffffffffffffffffffffffffff160217905550808273ffffffffffffffffffffffffffffffffffffffff168473ffffffffffffffffffffffffffffffffffffffff167fddf252ad1be2c89b69c2b068fc378daa952ba7f163c4a11628f55a4df523b3ef60405160405180910390a4610f3d838383611645565b505050565b610f4a610b85565b73ffffffffffffffffffffffffffffffffffffffff16610f6861083c565b73ffffffffffffffffffffffffffffffffffffffff1614610fbe576040517f08c379a0000000000000000000000000000000000000000000000000000000008152600401610fb590612704565b60405180910390fd5b565b6000600760009054906101000a900473ffffffffffffffffffffffffffffffffffffffff16905081600760006101000a81548173ffffffffffffffffffffffffffffffffffffffff021916908373ffffffffffffffffffffffffffffffffffffffff1602179055508173ffffffffffffffffffffffffffffffffffffffff168173ffffffffffffffffffffffffffffffffffffffff167f8be0079c531659141344cd1fd0a4f28419497f9722a3daafe3b4186f6b6457e060405160405180910390a35050565b8173ffffffffffffffffffffffffffffffffffffffff168373ffffffffffffffffffffffffffffffffffffffff1614156110f5576040517f08c379a00000000000000000000000000000000000000000000000000000000081526004016110ec90612770565b60405180910390fd5b80600560008573ffffffffffffffffffffffffffffffffffffffff1673ffffffffffffffffffffffffffffffffffffffff16815260200190815260200160002060008473ffffffffffffffffffffffffffffffffffffffff1673ffffffffffffffffffffffffffffffffffffffff16815260200190815260200160002060006101000a81548160ff0219169083151502179055508173ffffffffffffffffffffffffffffffffffffffff168373ffffffffffffffffffffffffffffffffffffffff167f17307eab39ab6107e8899845ad3d59bd9653f200f220920489ca2b5937696c31836040516111e69190611b3b565b60405180910390a3505050565b600081600001549050919050565b6001816000016000828254019250508190555050565b600073ffffffffffffffffffffffffffffffffffffffff168273ffffffffffffffffffffffffffffffffffffffff161415611287576040517f08c379a000000000000000000000000000000000000000000000000000000000815260040161127e906127dc565b60405180910390fd5b611290816115d4565b156112d0576040517f08c379a00000000000000000000000000000000000000000000000000000000081526004016112c790612848565b60405180910390fd5b6112dc60008383611640565b6001600360008473ffffffffffffffffffffffffffffffffffffffff1673ffffffffffffffffffffffffffffffffffffffff168152602001908152602001600020600082825461132c9190612662565b92505081905550816002600083815260200190815260200160002060006101000a81548173ffffffffffffffffffffffffffffffffffffffff021916908373ffffffffffffffffffffffffffffffffffffffff160217905550808273ffffffffffffffffffffffffffffffffffffffff16600073ffffffffffffffffffffffffffffffffffffffff167fddf252ad1be2c89b69c2b068fc378daa952ba7f163c4a11628f55a4df523b3ef60405160405180910390a46113ed60008383611645565b5050565b6113fa826115d4565b611439576040517f08c379a0000000000000000000000000000000000000000000000000000000008152600401611430906128da565b60405180910390fd5b806006600084815260200190815260200160002090805190602001906114609291906119e4565b505050565b611470848484610cdb565b61147c8484848461164a565b6114bb576040517f08c379a00000000000000000000000000000000000000000000000000000000081526004016114b29061296c565b60405180910390fd5b50505050565b60606114cc82610b3a565b60006006600084815260200190815260200160002080546114ec90612163565b80601f016020809104026020016040519081016040528092919081815260200182805461151890612163565b80156115655780601f1061153a57610100808354040283529160200191611565565b820191906000526020600020905b81548152906001019060200180831161154857829003601f168201915b5050505050905060006115766117e1565b905060008151141561158c5781925050506115cf565b6000825111156115c15780826040516020016115a99291906129c8565b604051602081830303815290604052925050506115cf565b6115ca846117f8565b925050505b919050565b60008073ffffffffffffffffffffffffffffffffffffffff166002600084815260200190815260200160002060009054906101000a900473ffffffffffffffffffffffffffffffffffffffff1673ffffffffffffffffffffffffffffffffffffffff1614159050919050565b505050565b505050565b600061166b8473ffffffffffffffffffffffffffffffffffffffff16611860565b156117d4578373ffffffffffffffffffffffffffffffffffffffff1663150b7a02611694610b85565b8786866040518563ffffffff1660e01b81526004016116b69493929190612a41565b602060405180830381600087803b1580156116d057600080fd5b505af192505050801561170157506040513d601f19601f820116820180604052508101906116fe9190612aa2565b60015b611784573d8060008114611731576040519150601f19603f3d011682016040523d82523d6000602084013e611736565b606091505b5060008151141561177c576040517f08c379a00000000000000000000000000000000000000000000000000000000081526004016117739061296c565b60405180910390fd5b805181602001fd5b63150b7a0260e01b7bffffffffffffffffffffffffffffffffffffffffffffffffffffffff1916817bffffffffffffffffffffffffffffffffffffffffffffffffffffffff1916149150506117d9565b600190505b949350505050565b606060405180602001604052806000815250905090565b606061180382610b3a565b600061180d6117e1565b9050600081511161182d5760405180602001604052806000815250611858565b8061183784611883565b6040516020016118489291906129c8565b6040516020818303038152906040525b915050919050565b6000808273ffffffffffffffffffffffffffffffffffffffff163b119050919050565b606060008214156118cb576040518060400160405280600181526020017f300000000000000000000000000000000000000000000000000000000000000081525090506119df565b600082905060005b600082146118fd5780806118e690612acf565b915050600a826118f69190612b47565b91506118d3565b60008167ffffffffffffffff81111561191957611918611e5c565b5b6040519080825280601f01601f19166020018201604052801561194b5781602001600182028036833780820191505090505b5090505b600085146119d857600182611964919061262e565b9150600a856119739190612b78565b603061197f9190612662565b60f81b81838151811061199557611994612ba9565b5b60200101907effffffffffffffffffffffffffffffffffffffffffffffffffffffffffffff1916908160001a905350600a856119d19190612b47565b945061194f565b8093505050505b919050565b8280546119f090612163565b90600052602060002090601f016020900481019282611a125760008555611a59565b82601f10611a2b57805160ff1916838001178555611a59565b82800160010185558215611a59579182015b82811115611a58578251825591602001919060010190611a3d565b5b509050611a669190611a6a565b5090565b5b80821115611a83576000816000905550600101611a6b565b5090565b6000604051905090565b600080fd5b600080fd5b60007fffffffff0000000000000000000000000000000000000000000000000000000082169050919050565b611ad081611a9b565b8114611adb57600080fd5b50565b600081359050611aed81611ac7565b92915050565b600060208284031215611b0957611b08611a91565b5b6000611b1784828501611ade565b91505092915050565b60008115159050919050565b611b3581611b20565b82525050565b6000602082019050611b506000830184611b2c565b92915050565b600081519050919050565b600082825260208201905092915050565b60005b83811015611b90578082015181840152602081019050611b75565b83811115611b9f576000848401525b50505050565b6000601f19601f8301169050919050565b6000611bc182611b56565b611bcb8185611b61565b9350611bdb818560208601611b72565b611be481611ba5565b840191505092915050565b60006020820190508181036000830152611c098184611bb6565b905092915050565b6000819050919050565b611c2481611c11565b8114611c2f57600080fd5b50565b600081359050611c4181611c1b565b92915050565b600060208284031215611c5d57611c5c611a91565b5b6000611c6b84828501611c32565b91505092915050565b600073ffffffffffffffffffffffffffffffffffffffff82169050919050565b6000611c9f82611c74565b9050919050565b611caf81611c94565b82525050565b6000602082019050611cca6000830184611ca6565b92915050565b611cd981611c94565b8114611ce457600080fd5b50565b600081359050611cf681611cd0565b92915050565b60008060408385031215611d1357611d12611a91565b5b6000611d2185828601611ce7565b9250506020611d3285828601611c32565b9150509250929050565b600080600060608486031215611d5557611d54611a91565b5b6000611d6386828701611ce7565b9350506020611d7486828701611ce7565b9250506040611d8586828701611c32565b9150509250925092565b600060208284031215611da557611da4611a91565b5b6000611db384828501611ce7565b91505092915050565b611dc581611c11565b82525050565b6000602082019050611de06000830184611dbc565b92915050565b611def81611b20565b8114611dfa57600080fd5b50565b600081359050611e0c81611de6565b92915050565b60008060408385031215611e2957611e28611a91565b5b6000611e3785828601611ce7565b9250506020611e4885828601611dfd565b9150509250929050565b600080fd5b600080fd5b7f4e487b7100000000000000000000000000000000000000000000000000000000600052604160045260246000fd5b611e9482611ba5565b810181811067ffffffffffffffff82111715611eb357611eb2611e5c565b5b80604052505050565b6000611ec6611a87565b9050611ed28282611e8b565b919050565b600067ffffffffffffffff821115611ef257611ef1611e5c565b5b611efb82611ba5565b9050602081019050919050565b82818337600083830152505050565b6000611f2a611f2584611ed7565b611ebc565b905082815260208101848484011115611f4657611f45611e57565b5b611f51848285611f08565b509392505050565b600082601f830112611f6e57611f6d611e52565b5b8135611f7e848260208601611f17565b91505092915050565b600060208284031215611f9d57611f9c611a91565b5b600082013567ffffffffffffffff811115611fbb57611fba611a96565b5b611fc784828501611f59565b91505092915050565b600067ffffffffffffffff821115611feb57611fea611e5c565b5b611ff482611ba5565b9050602081019050919050565b600061201461200f84611fd0565b611ebc565b9050828152602081018484840111156120305761202f611e57565b5b61203b848285611f08565b509392505050565b600082601f83011261205857612057611e52565b5b8135612068848260208601612001565b91505092915050565b6000806000806080858703121561208b5761208a611a91565b5b600061209987828801611ce7565b94505060206120aa87828801611ce7565b93505060406120bb87828801611c32565b925050606085013567ffffffffffffffff8111156120dc576120db611a96565b5b6120e887828801612043565b91505092959194509250565b6000806040838503121561210b5761210a611a91565b5b600061211985828601611ce7565b925050602061212a85828601611ce7565b9150509250929050565b7f4e487b7100000000000000000000000000000000000000000000000000000000600052602260045260246000fd5b6000600282049050600182168061217b57607f821691505b6020821081141561218f5761218e612134565b5b50919050565b7f4552433732313a20617070726f76616c20746f2063757272656e74206f776e6560008201527f7200000000000000000000000000000000000000000000000000000000000000602082015250565b60006121f1602183611b61565b91506121fc82612195565b604082019050919050565b60006020820190508181036000830152612220816121e4565b9050919050565b7f4552433732313a20617070726f76652063616c6c6572206973206e6f7420746f60008201527f6b656e206f776e6572206e6f7220617070726f76656420666f7220616c6c0000602082015250565b6000612283603e83611b61565b915061228e82612227565b604082019050919050565b600060208201905081810360008301526122b281612276565b9050919050565b7f4552433732313a2063616c6c6572206973206e6f7420746f6b656e206f776e6560008201527f72206e6f7220617070726f766564000000000000000000000000000000000000602082015250565b6000612315602e83611b61565b9150612320826122b9565b604082019050919050565b6000602082019050818103600083015261234481612308565b9050919050565b7f4552433732313a20696e76616c696420746f6b656e2049440000000000000000600082015250565b6000612381601883611b61565b915061238c8261234b565b602082019050919050565b600060208201905081810360008301526123b081612374565b9050919050565b7f4552433732313a2061646472657373207a65726f206973206e6f74206120766160008201527f6c6964206f776e65720000000000000000000000000000000000000000000000602082015250565b6000612413602983611b61565b915061241e826123b7565b604082019050919050565b6000602082019050818103600083015261244281612406565b9050919050565b7f4f776e61626c653a206e6577206f776e657220697320746865207a65726f206160008201527f6464726573730000000000000000000000000000000000000000000000000000602082015250565b60006124a5602683611b61565b91506124b082612449565b604082019050919050565b600060208201905081810360008301526124d481612498565b9050919050565b7f4552433732313a207472616e736665722066726f6d20696e636f72726563742060008201527f6f776e6572000000000000000000000000000000000000000000000000000000602082015250565b6000612537602583611b61565b9150612542826124db565b604082019050919050565b600060208201905081810360008301526125668161252a565b9050919050565b7f4552433732313a207472616e7366657220746f20746865207a65726f2061646460008201527f7265737300000000000000000000000000000000000000000000000000000000602082015250565b60006125c9602483611b61565b91506125d48261256d565b604082019050919050565b600060208201905081810360008301526125f8816125bc565b9050919050565b7f4e487b7100000000000000000000000000000000000000000000000000000000600052601160045260246000fd5b600061263982611c11565b915061264483611c11565b925082821015612657576126566125ff565b5b828203905092915050565b600061266d82611c11565b915061267883611c11565b9250827fffffffffffffffffffffffffffffffffffffffffffffffffffffffffffffffff038211156126ad576126ac6125ff565b5b828201905092915050565b7f4f776e61626c653a2063616c6c6572206973206e6f7420746865206f776e6572600082015250565b60006126ee602083611b61565b91506126f9826126b8565b602082019050919050565b6000602082019050818103600083015261271d816126e1565b9050919050565b7f4552433732313a20617070726f766520746f2063616c6c657200000000000000600082015250565b600061275a601983611b61565b915061276582612724565b602082019050919050565b600060208201905081810360008301526127898161274d565b9050919050565b7f4552433732313a206d696e7420746f20746865207a65726f2061646472657373600082015250565b60006127c6602083611b61565b91506127d182612790565b602082019050919050565b600060208201905081810360008301526127f5816127b9565b9050919050565b7f4552433732313a20746f6b656e20616c7265616479206d696e74656400000000600082015250565b6000612832601c83611b61565b915061283d826127fc565b602082019050919050565b6000602082019050818103600083015261286181612825565b9050919050565b7f45524337323155524953746f726167653a2055524920736574206f66206e6f6e60008201527f6578697374656e7420746f6b656e000000000000000000000000000000000000602082015250565b60006128c4602e83611b61565b91506128cf82612868565b604082019050919050565b600060208201905081810360008301526128f3816128b7565b9050919050565b7f4552433732313a207472616e7366657220746f206e6f6e20455243373231526560008201527f63656976657220696d706c656d656e7465720000000000000000000000000000602082015250565b6000612956603283611b61565b9150612961826128fa565b604082019050919050565b6000602082019050818103600083015261298581612949565b9050919050565b600081905092915050565b60006129a282611b56565b6129ac818561298c565b93506129bc818560208601611b72565b80840191505092915050565b60006129d48285612997565b91506129e08284612997565b91508190509392505050565b600081519050919050565b600082825260208201905092915050565b6000612a13826129ec565b612a1d81856129f7565b9350612a2d818560208601611b72565b612a3681611ba5565b840191505092915050565b6000608082019050612a566000830187611ca6565b612a636020830186611ca6565b612a706040830185611dbc565b8181036060830152612a828184612a08565b905095945050505050565b600081519050612a9c81611ac7565b92915050565b600060208284031215612ab857612ab7611a91565b5b6000612ac684828501612a8d565b91505092915050565b6000612ada82611c11565b91507fffffffffffffffffffffffffffffffffffffffffffffffffffffffffffffffff821415612b0d57612b0c6125ff565b5b600182019050919050565b7f4e487b7100000000000000000000000000000000000000000000000000000000600052601260045260246000fd5b6000612b5282611c11565b9150612b5d83611c11565b925082612b6d57612b6c612b18565b5b828204905092915050565b6000612b8382611c11565b9150612b8e83611c11565b925082612b9e57612b9d612b18565b5b828206905092915050565b7f4e487b7100000000000000000000000000000000000000000000000000000000600052603260045260246000fdfea2646970667358221220be4f9e5dfcf9add4b0c12539cf26d20fe03cc641862d10f06df754c469371e6b64736f6c63430008090033",
  "linkReferences": {},
  "deployedLinkReferences": {}
}